:020000040800F2
:1000000098040020C1010008CB140008A9130008BF
:10001000C9140008CD02000877190008000000008C
:10002000000000000000000000000000D1140008E3
:10003000CF02000800000000CD140008D31400080F
:10004000DB010008DB010008DB010008DB01000820
:10005000DB010008CF140008DB010008DB01000809
:10006000DB010008DB010008DB010008DB01000800
:10007000DB010008DB010008DB010008DB010008F0
:10008000DB010008DB010008DB010008DB010008E0
:10009000DB010008DB010008DB010008DB010008D0
:1000A000DB010008DB010008DB010008DB010008C0
:1000B00079150008DB010008DB010008DB010008FE
:1000C000DB010008DB010008DB010008DB010008A0
:1000D000DB010008DB010008DB010008DB01000890
:1000E000DB010008DB010008DB010008DB01000880
:1000F000DB010008DB010008DB010008DB01000870
:10010000DB010008DB010008DB010008DB0100085F
:10011000DB010008DB010008DB010008DB0100084F
:10012000DB010008DB010008DB010008DB0100083F
:10013000DB010008DB010008DB010008DB0100082F
:10014000DB010008DB010008DB010008DB0100081F
:10015000DB010008DB010008DB010008DB0100080F
:10016000DB010008DB010008DB010008DB010008FF
:10017000DB010008DB010008DB01000800000000D3
:10018000DB010008DB010008DB010008B9160008EC
:10019000DB010008DB010008DB010008DB010008CF
:1001A0000000000000000000DB010008DFF80CD0B8
:1001B00000F07AF800480047B919000898040020B8
:1001C0000648804706480047FEE7FEE7FEE7FEE7F1
:1001D000FEE7FEE7FEE7FEE7FEE7FEE75D15000847
:1001E000AD0100082DE9F05F0546002092469B46D0
:1001F00088460646814640241BE02846414647463D
:10020000224600F041F853465A46C01A914110D395
:1002100011461846224600F028F82D1A67EB01080F
:100220004F4622460120002100F01FF817EB00097D
:100230004E41201EA4F10104DFDC484631462A4627
:100240004346BDE8F09FD2B201E000F8012B491E01
:10025000FBD270470022F6E710B513460A46044663
:100260001946FFF7F0FF204610BD202A04DB203A94
:1002700000FA02F1002070479140C2F1200320FAF9
:1002800003F3194390407047202A04DB203A21FAF7
:1002900002F00021704721FA02F3D040C2F120029F
:1002A0009140084319467047064C074D06E0E06848
:1002B00040F0010394E8070098471034AC42F6D3AD
:1002C000FFF778FFF8190008181A0008FEE77047D2
:1002D000704790F83510022903D080214165012034
:1002E0007047052180F835100068016821F0010190
:1002F00001600020704700002DE9F84F00224FF008
:10030000010803254FF00F0E0B6808FA02F4234092
:10031000A3426ED14E68012E05D0022E03D0112EBD
:1003200001D0122E12D186684FEA420C05FA0CF762
:10033000BE43CF6807FA0CF7374387604668A64389
:100340000C79C4F30014944034434460C6685700E9
:1003500005FA07FC8C6826EA0C06BC403443C460EE
:100360004C68022C01D0122C13D1D40800EB840469
:10037000A346D4F8209054074FEAD46A0EFA0AF63E
:1003800029EA06090E6906FA0AF646EA0906CBF8D2
:10039000206004680E7924EA0C0406F00306BE40CF
:1003A000264306604C68E4006FD53B4C266846F453
:1003B00080462660246822F0030604F480440094FA
:1003C000364C3444A446D4F808489607360F0EFA43
:1003D00006F7BC43324FB84201D100272EE0314F1F
:1003E000B84201D1012729E02F4FB84202D102279C
:1003F00024E04AE02D4FB84201D103271EE02C4FE4
:10040000B84201D1042719E02A4FB84201D105278B
:1004100014E0294FB84201D106270FE0274FB84218
:1004200001D107270AE0264FB84201D1082705E08D
:10043000244FB84201D1092700E00A27B7402743DB
:10044000CCF80878204E34684F689C43FF0300D5F1
:100450001C4334601C4E361D34684F689C43BF03F8
:1004600000D51C433460184E083634684F689C43EE
:10047000FF0200D51C433460134E0C3634684F68BD
:100480009C43BF0200D51C433460521C102AFFF469
:100490003BAFBDE8F88F0000443802400030014017
:1004A000000002400004024000080240000C02402C
:1004B000001002400014024000180240001C0240DC
:1004C0000020024000240240003C01400AB181614A
:1004D00070470904FBE7000001488068704700008E
:1004E000040000200248816802781144816070474E
:1004F000040000200B4810B5016841F40071016050
:10050000016841F480610160016841F4807101601B
:10051000032000F077F8002000F006F800F024F83F
:10052000002010BD003C024070B50D4D04464FF454
:100530007A712878B1FBF0F00A490968B1FBF0F054
:1005400000F00CFB48B9102C07D200222146501EA7
:1005500000F038F800206C6070BD012070BD000014
:1005600004000020100000200E4808B5016841F486
:1005700080410160006800F4804000900948001F3D
:10058000016841F0805101600068002200F0805055
:1005900000901146052000F015F8BDE80840052040
:1005A00000F002B844380240002809DB00F01F02C6
:1005B000012191404009800000F1E020C0F80011C5
:1005C00070470000F0B40E4B1B680C46C3F30223C7
:1005D000C3F10705042D00D90425191D072901D2EF
:1005E000002300E0DB1E012606FA05F1491E21402A
:1005F00099409E40761E16403143F0BC01F0BCB9D4
:100600000CED00E0064900F0070208684FF6FF0312
:10061000184040EA0220034A104308607047000077
:100620000CED00E00000FA052DE9F0470E4605004C
:1006300065D0DFF81481D8F80000F7B200F00F00A1
:10064000B04207D288F80070D8F8000000F00F0020
:10065000B04254D128683D4C810712D5400703D5DC
:10066000206840F4E05020602878000703D5206817
:1006700040F4604020602068A96820F0F000084342
:1006800020602878C0072DD03049686808390128D3
:1006900012D0022813D0032811D009688907002935
:1006A0002DDA216821F0030101432160FFF714FFD7
:1006B000814641F2883A0EE009688903EFE709684C
:1006C0008901ECE7FFF708FFA0EB0901514502D9CA
:1006D0000320BDE8F0872068696800F00C00B0EBEB
:1006E000810FEFD1D8F80010404601F00F01B14260
:1006F00007D90770006800F00F00B04201D0012058
:10070000E7E72878400705D52068E96820F4E0503D
:10071000084320602878000706D52068296920F45E
:10072000604040EAC100206000F038F82168084AC3
:10073000C1F30311515CC8400649086006480068CF
:10074000FFF7F2FE0020C4E7003C024008380240F8
:10075000E0190008100000200800002004480549A6
:1007600000680968044AC1F38221515CC84070479F
:100770001000002008380240F0190008044805491C
:1007800000680968044AC1F34231515CC8407047AF
:100790001000002008380240F0190008154810B574
:1007A000006810F00C02144813D01449042A0FD02A
:1007B000082A0ED10F4C241F2268236802F03F0242
:1007C0005B0207D52068C0F38810A0FB010106E09A
:1007D000084610BD2168C1F38811A1FB0001002368
:1007E000FFF700FD2168C1F30141491C4900B0FB3E
:1007F000F1F010BD083802400024F400001BB700DF
:100800002DE9F84F040076D02078DFF838A3CE4DDC
:10081000C00749D0DAF800105046C1F38101012920
:1008200008D00068C0F3810002280AD1281D0068A2
:10083000400206D52868800336D560680028E2D0DB
:1008400032E06068B0F5803F10D0B0F5A02F286886
:1008500010D020F480302860286820F480202860A0
:100860006068A0B1FFF738FE06460CE0286840F447
:100870008030F4E740F480202860F7E7FFF72CFE93
:10088000801B642873D828688003F7D50CE0FFF735
:1008900023FE064605E000BFFFF71EFE801B64280E
:1008A000F0D828688003F7D42078DFF8A08280078A
:1008B0004FF000093ED5DAF80010504611F00C0F49
:1008C00009D00068C0F3810002280BD19D48001FA9
:1008D0000068400206D42868800715D5E068012822
:1008E00009D111E0E068B8B10120C8F80000FFF7B5
:1008F000F3FD064605E020E1FFF7EEFD801B022830
:10090000C0D828688007F7D52868216920F0F8004A
:1009100040EAC10028600DE0C8F80090FFF7DCFD58
:10092000064604E0FFF7D8FD801B02281FD8286880
:100930008007F7D42078000722D5824E8448616969
:100940006C3671B101210160FFF7C6FD074604E076
:10095000FFF7C2FDC01B022809D830688007F7D511
:100960000EE0C0F80090FFF7B7FD074605E082E013
:10097000FFF7B2FDC01B02287DD830688007F7D48E
:100980002078400768D5DFF8BCB100270BF1380BA1
:10099000DBF80000C0000BD4DBF8001041F0805100
:1009A000CBF80010DBF80000012700F08050009029
:1009B000684E3068C00510D4306840F480703060F4
:1009C000FFF78AFD009005E0FFF786FD0099401AC9
:1009D000022850D83068C005F6D55A4EA06868364F
:1009E00001280FD00528306810D020F001003060B9
:1009F000306820F004003060A068B8B1FFF76CFDEB
:100A000000900FE0306840F00100F4E740F004008F
:100A10003060F7E7FFF760FD0099411A41F2883036
:100A2000814266D830688007F4D50EE0FFF754FDA8
:100A3000009007E0FFF750FD0099411A41F288301D
:100A4000814256D830688007F4D42FB1DBF800100B
:100A500021F08051CBF80010A069D0B3DAF8002063
:100A60005146C2F38102022A4AD00228484607D0E2
:100A7000C8F8600000E03CE0FFF72EFD04463BE0D4
:100A80004746C8F86000FFF727FD064605E000BFAF
:100A9000FFF722FD801B02282BD828688001F7D49D
:100AA000D4E907010843A16A2B4A490802EB014136
:100AB000626A41EA8211084394F82C1040EA01610D
:100AC0002048001F016001203866FFF705FD04463D
:100AD00005E034E0FFF700FD001B022809D8286874
:100AE0008001F7D52BE000BFFFF7F6FC001B0228C2
:100AF00002D90320BDE8F88F28688001F4D41EE0F5
:100B00000128F7D00868E26900F48001914214D10D
:100B1000226A00F03F0191420FD147F6C071626A2C
:100B20000140914209D1A26A00F44031914204D1BE
:100B3000E16A00F07060884201D00120DAE700200D
:100B4000D8E7000008380240003802400000474261
:100B5000800E4742007000400000FFFF10B5401EAD
:100B6000B0F1807F01D3012010BD4FF0E02460611F
:100B70000F21601700F000FF0020A0610720206116
:100B8000002010BD7047704770B590F83C20012AD6
:100B900032D0012480F83C40022280F83D200368D6
:100BA0005A689D6822F070060A6832435A60134BF7
:100BB00002689A4214D0B2F1804F11D0104B9A4281
:100BC0000ED0104B9A420BD00F4B9A4208D00F4BCD
:100BD0009A4205D00E4B9A4202D00E4B9A4204D153
:100BE000496825F080031943916080F83D40002159
:100BF00080F83C10084670BD022070BD0000014026
:100C00000004004000080040000C004000040140C7
:100C1000004001400018004010B5040003D094F8D3
:100C20003D0010B107E0012010BD002084F83C0019
:100C3000204600F00DF8022084F83D00211D2068B8
:100C400000F0A0FC012084F83D00002010BD000051
:100C500008B50068B0F1804F12D10A48016841F030
:100C6000010101600068002200F0010000901146BF
:100C70001C20FFF7A7FCBDE808401C20FFF794BC30
:100C800008BD00004038024070B5044690F83C00B2
:100C9000012817D0012584F83C50022084F83D003B
:100CA0002068826822F0770222F47F42826008681E
:100CB000502830D00DDC20284DD005DC98B310280A
:100CC0003BD148E0022070BD302844D0402834D1C8
:100CD00039E0602828D0702806D0B0F5805F2CD08D
:100CE000B0F5005F29D10AE0CB68D1E90121206885
:100CF00000F0ACFC2068816841F0770109E0CB6826
:100D0000D1E90121206800F0A1FC2068816841F44C
:100D10008041816011E0CA684968206800F0A8FC41
:100D20005021206807E016E0CA684968206800F092
:100D3000B0FC6021206800F093FC84F83D50002056
:100D400084F83C0070BDCA684968206800F090FCD7
:100D500040212068EFE7226801461046EBE7704724
:100D600070B50446006801694FF00005C943890762
:100D700015D4C168C943890711D4E91E0161012056
:100D80002077206880698007204602D0FFF7E7FFC0
:100D900004E000F098F8204600F096F825772068E7
:100DA0000169C943490717D4C168C943490713D426
:100DB0006FF004010161022020772068806910F43F
:100DC000407F204602D0FFF7CAFF04E000F07BF826
:100DD000204600F079F8257720680169C9430907A2
:100DE00016D4C168C943090712D46FF00801016124
:100DF000042020772068C0698007204602D0FFF7D2
:100E0000AEFF04E000F05FF8204600F05DF82577C3
:100E100020680169C943C90617D4C168C943C90616
:100E200013D46FF010010161082020772068C06999
:100E300010F4407F204602D0FFF791FF04E000F05D
:100E400042F8204600F040F8257720680169C94340
:100E5000C90708D1C168C943C90704D1891E016106
:100E6000204600F032F820680169C943090609D418
:100E7000C168C943090605D46FF0800101612046AD
:100E8000FFF780FE20680169C943490609D4C1689B
:100E9000C943490605D46FF040010161204600F0C6
:100EA00015F820680169C94389060BD4C168C94394
:100EB000890607D46FF0200101612046BDE870402B
:100EC000FFF761BE70BD704770477047704770474D
:100ED00070B5026804461068D168536910F00F0FAE
:100EE00052D003F0010501F490762E435FD0C20783
:100EF00005D0CA0503D5E26B42F00102E263420766
:100F000005D5DA0703D0E26B42F00202E263820702
:100F100005D5DA0703D0E26B42F00402E263020770
:100F200007D501F020022A4303D0E26B42F0080209
:100F3000E263E26B002A33D0800604D5880602D52E
:100F4000204600F0D5FB20684069E16BC0F38010BB
:100F5000090700D428B3204600F0BCFB2068416993
:100F600049061AD5416921F040014161606BA0B189
:100F70001B490165606BFFF7ACF9002810D0606B6E
:100F8000016DBDE870400847830610D58B060ED56D
:100F90002046BDE8704000F0ABBB2046FFF797FF4E
:100FA00070BD2046FFF793FF0020E06370BD03068D
:100FB00006D50B0604D52046BDE8704000F078BC8D
:100FC0004006F3D54806F1D5D168204621F040010E
:100FD000D160202184F8391000F0E5F970BD0000DF
:100FE000C516000870B5040004D094F83900002537
:100FF00010B106E0012070BD84F83850204600F0A2
:1010000023F8242084F839002068C16821F40051B5
:10101000C160204600F0B8FB2068016921F49041CE
:1010200001612068416921F02A0141612068C1689D
:1010300041F40051C160E563202084F8390084F850
:101040003A00002070BD000010B586B0044614219F
:101050006846FFF7FFF817492068884227D11648ED
:10106000016841F000410160006800F00040059017
:1010700011481038016841F0100101600068022138
:1010800000F0100005900320CDE900010121CDE919
:1010900002100820049069460848FFF72DF9002245
:1010A00011465320FFF78EFA5320FFF77DFA06B062
:1010B00010BD0000007C004040380240001002409B
:1010C00090F83A30202B22D1F9B1F2B190F83830B3
:1010D000012B1CD081628285C2850021C16322223E
:1010E00080F83A2080F838100168CA6842F48072AB
:1010F000CA6001684A6942F001024A610068C16839
:1011000041F02001C160002070470120704702209B
:101110007047000070B572490068096888427CD148
:101120004FF6FF7301226F496D4800F0DFF86D48FC
:101130006D4C0078A5153138082834D2DFE800F06E
:10114000040B3A46576E89A9002202212046FFF778
:10115000BDF9012205E0012202212046FFF7B6F980
:10116000002204212046FFF7B1F901220821204680
:10117000FFF7ACF9012210212046FFF7A7F9012261
:1011800020212046FFF7A2F9012240212046FFF747
:101190009DF9012280212046FFF798F90122294676
:1011A0002046FFF793F9BDE8704001224D494C48B5
:1011B000FFF786BF012202212046FFF787F90122AF
:1011C00004212046FFF782F90022CFE70122022105
:1011D0002046FFF77BF9012204212046FFF776F92C
:1011E000012208212046FFF771F90022C3E70122FE
:1011F00002212046FFF76AF9012204212046FFF769
:1012000065F9012208212046FFF760F9012210212B
:101210002046FFF75BF90022B2E75FE001220221DE
:101220002046FFF753F9012204212046FFF74EF92B
:10123000012208212046FFF749F90122102120460A
:10124000FFF744F9012220212046FFF73FF9002251
:101250009BE7012202212046FFF738F901220421F1
:101260002046FFF733F9012208212046FFF72EF927
:10127000012210212046FFF729F9012220212046D2
:10128000FFF724F9012240212046FFF71FF9002231
:1012900080E7012202212046FFF718F901220421EC
:1012A0002046FFF713F9012208212046FFF70EF927
:1012B000012210212046FFF709F9012220212046B2
:1012C000FFF704F9012240212046FFF7FFF8012231
:1012D00080212046FFF7FAF8002260E770BD000089
:1012E0005400002000000020001802402DE9F843BF
:1012F000044690F839001F4616460D46202850D166
:10130000B5B1AEB194F8380001284AD0012084F874
:1013100038004FF00008C4F83C80212084F83900E0
:10132000FFF7DAF8A6848146E68484F8388026E060
:101330000120BDE8F883E08C401EE084A0684B46A5
:10134000B0F5805F4FF000024FF08001204600971B
:1013500003D000F0DEFAE8B90DE000F0DAFAC8B91F
:1013600028882168C0F308004860206908B16D1C16
:1013700005E0AD1C03E0216815F8010B4860E08C26
:101380000028D8D14B46002240212046009700F08B
:10139000C0FA08B10320CCE7202084F839000020EF
:1013A000C7E70220C5E77047FEE7000070B586B0CA
:1013B00014216846FEF74EFF1A480024016841F0E8
:1013C00010010160016801F010010591016841F010
:1013D00004010160016801F004010591016841F018
:1013E00080010160016801F080010591016841F010
:1013F0004001016000680C4E00F040004FF4FF75A2
:101400000590002229463046FFF760F8012000953C
:10141000CDE90104694630460394FEF76DFF06B03E
:1014200070BD0000303802400018024010B586B090
:1014300000241648009401940294039404944FF0FD
:101440008041059401605421C0E901144FF47A7180
:10145000C0E903148461FFF7DFFB08B1FEF738FF32
:101460004FF48050009069460848FFF70DFC08B122
:10147000FEF72EFF049404A904480594FFF784FBAB
:10148000002801D0FEF724FF06B010BD1400002094
:101490000C4810B50A4901604FF4E1314160002168
:1014A00081600C22C160C0E904128161C161FFF753
:1014B00099FD002803D0BDE81040FEF709BF10BD1C
:1014C000007C004054000020FEE7704770477047E2
:1014D0007047FFF707B8000030B593B03021684679
:1014E000FEF7B8FE14210CA8FEF7B4FE194800253B
:1014F000016841F080510160006800F08050119057
:101500001548016841F4404101600068022400F47C
:101510004040119001200090000401908001CDE92D
:10152000064006200890A820CDE9090404200B906D
:101530006846FFF765F90CA90F2081E831004FF4E8
:10154000A0500F90E002109005210CA8FFF76CF856
:1015500013B030BD403802400070004005480168BB
:1015600041F47001016003494FF000608039086068
:101570007047000088ED00E00148FFF7F1BB000074
:1015800014000020F0B50268254C264D264E274F4A
:10159000274B4FF0804CA04209D0604507D0A842AD
:1015A00005D0B04203D0B84201D0984204D122F015
:1015B000700E4A6842EA0E02A0421BD0604519D064
:1015C000A84217D0B04215D0B84213D0984211D0DB
:1015D000184DA8420ED0184DA8420BD0174DA84266
:1015E00008D0174DA84205D0164DA84202D0164D7E
:1015F000A84203D122F44075CA682A434D6922F0FB
:1016000080022A4302608A68C2620A688262A0423B
:1016100001D0984201D10969016301214161F0BD06
:10162000000001400004004000080040000C0040A1
:1016300000040140004001400044014000480140D6
:1016400000180040001C00400020004010B58468D5
:1016500042EA032224F47F440A432243826010BDFD
:10166000826822F070020A4342F0070181607047ED
:1016700010B5036A046A24F001040462846924F04A
:10168000F00444EA021423F00A020A43846102626D
:1016900010BD10B5036A23F0100303628369046A66
:1016A00023F4704343EA023224F0A00343EA011119
:1016B0008261016210BD00000148FFF709BC000013
:1016C0005400002010B5806B0021C185C184FFF754
:1016D000FEFB10BD0168CA6822F49072CA600168FE
:1016E0004A6922F001024A61202180F83A107047CD
:1016F00010B590F83A10222901D0022010BD81685F
:10170000B1F5805F11D00169002901681FD04968D7
:1017100001F07F03816A4A1C82620B70C18D491EF1
:101720000904090CC18518D02BE00269816A002ADE
:101730000268526805D0D2B20A80816A491C81626F
:10174000ECE7C2F308020A80816A891CF7E74A685D
:10175000816A4B1C83620A70E0E70168CA6822F064
:101760002002CA600168CA6822F48072CA600168F7
:101770004A6922F001024A61202180F83A10FFF7FD
:10178000C9FC002010BD00002DE9F04104460068AE
:101790000169E26821F44051114301612169A068A7
:1017A000E26908436169114308432168CA6849F244
:1017B0000C639A430243CA6020684169A26921F41C
:1017C000407111434161E069192764253226B0F563
:1017D000004F354A354920684FF0000806D088424E
:1017E00001D0904236D1FEF7C9FF35E0884201D0E2
:1017F000904202D1FEF7C2FF01E0FEF7AFFF616841
:101800004A18A0FB070148EB0803FEF7EBFC014672
:10181000B0FBF5F00201B1FBF5F06FF0180358438F
:1018200001EB800006EBC000B0FBF5F000F0F80023
:1018300002EB4002B1FBF5F0584301EB800006EBF0
:10184000C000B0FBF5F000F007002168104488608C
:10185000BDE8F081FEF782FF61688B0F8A00A0FB74
:101860000701FEF7BFFC0146B0FBF5F06FF0180270
:10187000504301EB800006EB0010B0FBF5F000F0E8
:10188000F002B1FBF5F002EB0012B1FBF5F06FF0E6
:101890001803584301EB800006EB0010B0FBF5F095
:1018A00000F00F00D1E700000014014000100140DB
:1018B00090F83910212901D0022070478168B1F5D4
:1018C000805F016A0BD04A1C02620268097851608D
:1018D000C18C491E0904090CC1840ED017E0098887
:1018E0000268C1F30801516001690029016A02D050
:1018F000491C0162ECE7891CFBE70168CA6822F019
:101900008002CA600068C16841F04001C1600020E7
:1019100070472DE9F041984617460E460446069D4D
:101920001DE0681C1BD02DB1FEF7D6FDA0EB080012
:10193000A84214D92068C16821F4D071C160206820
:10194000416921F001014161202084F8390084F8C7
:101950003A00002084F838000320BDE8F0812068B8
:10196000006836EA000004D00020B842D9D0002038
:10197000F3E70120F9E7FEE70907090E002804DB79
:1019800000F1E02080F80014704700F00F0000F133
:10199000E02080F8141D704702E008C8121F08C13B
:1019A000002AFAD170477047002001E001C1121FE0
:1019B000002AFBD17047000008B5FEF79BFDFFF73A
:1019C0008BFDFFF7F3FCFFF763FDFFF72FFD01220F
:1019D00069460248FFF774FBFEE700005400002050
:1019E00000000000000000000102030406070809CF
:1019F0000000000001020304181A00080000002083
:101A000014000000981900082C1A00081400002087
:101A100084040000A8190008000000000100000074
:0C1A200010000000000000000024F40092
:04000005080001AD41
:00000001FF
